{
  "address": "0x26Ac0Ad4179B87730416c3B4c2316cD59E107A51",
  "abi": [
    {
      "inputs": [
        {
          "internalType": "string",
          "name": "_nftURI",
          "type": "string"
        },
        {
          "internalType": "uint256",
          "name": "_publicSalesStartTime",
          "type": "uint256"
        },
        {
          "internalType": "uint256",
          "name": "_preSalesStartTime",
          "type": "uint256"
        },
        {
          "internalType": "uint256",
          "name": "_preSalesEndTime",
          "type": "uint256"
        },
        {
          "internalType": "address",
          "name": "_claimFundAddress",
          "type": "address"
        }
      ],
      "stateMutability": "nonpayable",
      "type": "constructor"
    },
    {
      "anonymous": false,
      "inputs": [
        {
          "indexed": true,
          "internalType": "address",
          "name": "owner",
          "type": "address"
        },
        {
          "indexed": true,
          "internalType": "address",
          "name": "approved",
          "type": "address"
        },
        {
          "indexed": true,
          "internalType": "uint256",
          "name": "tokenId",
          "type": "uint256"
        }
      ],
      "name": "Approval",
      "type": "event"
    },
    {
      "anonymous": false,
      "inputs": [
        {
          "indexed": true,
          "internalType": "address",
          "name": "owner",
          "type": "address"
        },
        {
          "indexed": true,
          "internalType": "address",
          "name": "operator",
          "type": "address"
        },
        {
          "indexed": false,
          "internalType": "bool",
          "name": "approved",
          "type": "bool"
        }
      ],
      "name": "ApprovalForAll",
      "type": "event"
    },
    {
      "anonymous": false,
      "inputs": [
        {
          "indexed": true,
          "internalType": "uint256",
          "name": "quantity",
          "type": "uint256"
        },
        {
          "indexed": true,
          "internalType": "address",
          "name": "buyer",
          "type": "address"
        }
      ],
      "name": "Mint",
      "type": "event"
    },
    {
      "anonymous": false,
      "inputs": [
        {
          "indexed": true,
          "internalType": "address",
          "name": "previousOwner",
          "type": "address"
        },
        {
          "indexed": true,
          "internalType": "address",
          "name": "newOwner",
          "type": "address"
        }
      ],
      "name": "OwnershipTransferred",
      "type": "event"
    },
    {
      "anonymous": false,
      "inputs": [
        {
          "indexed": true,
          "internalType": "uint256",
          "name": "quantity",
          "type": "uint256"
        },
        {
          "indexed": true,
          "internalType": "address",
          "name": "buyer",
          "type": "address"
        }
      ],
      "name": "Presale",
      "type": "event"
    },
    {
      "anonymous": false,
      "inputs": [
        {
          "indexed": true,
          "internalType": "address",
          "name": "from",
          "type": "address"
        },
        {
          "indexed": true,
          "internalType": "address",
          "name": "to",
          "type": "address"
        },
        {
          "indexed": true,
          "internalType": "uint256",
          "name": "tokenId",
          "type": "uint256"
        }
      ],
      "name": "Transfer",
      "type": "event"
    },
    {
      "inputs": [
        {
          "internalType": "address[]",
          "name": "_presaleList",
          "type": "address[]"
        }
      ],
      "name": "addToPresaleList",
      "outputs": [],
      "stateMutability": "nonpayable",
      "type": "function"
    },
    {
      "inputs": [
        {
          "internalType": "address",
          "name": "to",
          "type": "address"
        },
        {
          "internalType": "uint256",
          "name": "tokenId",
          "type": "uint256"
        }
      ],
      "name": "approve",
      "outputs": [],
      "stateMutability": "nonpayable",
      "type": "function"
    },
    {
      "inputs": [
        {
          "internalType": "address",
          "name": "owner",
          "type": "address"
        }
      ],
      "name": "balanceOf",
      "outputs": [
        {
          "internalType": "uint256",
          "name": "",
          "type": "uint256"
        }
      ],
      "stateMutability": "view",
      "type": "function"
    },
    {
      "inputs": [],
      "name": "claimFundAddress",
      "outputs": [
        {
          "internalType": "address",
          "name": "",
          "type": "address"
        }
      ],
      "stateMutability": "view",
      "type": "function"
    },
    {
      "inputs": [
        {
          "internalType": "uint256",
          "name": "tokenId",
          "type": "uint256"
        }
      ],
      "name": "getApproved",
      "outputs": [
        {
          "internalType": "address",
          "name": "",
          "type": "address"
        }
      ],
      "stateMutability": "view",
      "type": "function"
    },
    {
      "inputs": [
        {
          "internalType": "address",
          "name": "owner",
          "type": "address"
        },
        {
          "internalType": "address",
          "name": "operator",
          "type": "address"
        }
      ],
      "name": "isApprovedForAll",
      "outputs": [
        {
          "internalType": "bool",
          "name": "",
          "type": "bool"
        }
      ],
      "stateMutability": "view",
      "type": "function"
    },
    {
      "inputs": [],
      "name": "isPreSalesActivated",
      "outputs": [
        {
          "internalType": "bool",
          "name": "",
          "type": "bool"
        }
      ],
      "stateMutability": "view",
      "type": "function"
    },
    {
      "inputs": [],
      "name": "isPublicSalesActivated",
      "outputs": [
        {
          "internalType": "bool",
          "name": "",
          "type": "bool"
        }
      ],
      "stateMutability": "view",
      "type": "function"
    },
    {
      "inputs": [],
      "name": "max_sales_beauty",
      "outputs": [
        {
          "internalType": "uint256",
          "name": "",
          "type": "uint256"
        }
      ],
      "stateMutability": "view",
      "type": "function"
    },
    {
      "inputs": [
        {
          "internalType": "uint256",
          "name": "beautyNumber",
          "type": "uint256"
        }
      ],
      "name": "mint",
      "outputs": [],
      "stateMutability": "payable",
      "type": "function"
    },
    {
      "inputs": [],
      "name": "name",
      "outputs": [
        {
          "internalType": "string",
          "name": "",
          "type": "string"
        }
      ],
      "stateMutability": "view",
      "type": "function"
    },
    {
      "inputs": [],
      "name": "nftURI",
      "outputs": [
        {
          "internalType": "string",
          "name": "",
          "type": "string"
        }
      ],
      "stateMutability": "view",
      "type": "function"
    },
    {
      "inputs": [
        {
          "internalType": "address",
          "name": "_presaleCheck",
          "type": "address"
        }
      ],
      "name": "onPresaleList",
      "outputs": [
        {
          "internalType": "bool",
          "name": "",
          "type": "bool"
        }
      ],
      "stateMutability": "view",
      "type": "function"
    },
    {
      "inputs": [],
      "name": "owner",
      "outputs": [
        {
          "internalType": "address",
          "name": "",
          "type": "address"
        }
      ],
      "stateMutability": "view",
      "type": "function"
    },
    {
      "inputs": [
        {
          "internalType": "uint256",
          "name": "tokenId",
          "type": "uint256"
        }
      ],
      "name": "ownerOf",
      "outputs": [
        {
          "internalType": "address",
          "name": "",
          "type": "address"
        }
      ],
      "stateMutability": "view",
      "type": "function"
    },
    {
      "inputs": [],
      "name": "preSalesEndTime",
      "outputs": [
        {
          "internalType": "uint256",
          "name": "",
          "type": "uint256"
        }
      ],
      "stateMutability": "view",
      "type": "function"
    },
    {
      "inputs": [],
      "name": "preSalesStartTime",
      "outputs": [
        {
          "internalType": "uint256",
          "name": "",
          "type": "uint256"
        }
      ],
      "stateMutability": "view",
      "type": "function"
    },
    {
      "inputs": [
        {
          "internalType": "uint256",
          "name": "beautyNumber",
          "type": "uint256"
        }
      ],
      "name": "presale",
      "outputs": [],
      "stateMutability": "payable",
      "type": "function"
    },
    {
      "inputs": [
        {
          "internalType": "address",
          "name": "",
          "type": "address"
        }
      ],
      "name": "presaleList",
      "outputs": [
        {
          "internalType": "bool",
          "name": "",
          "type": "bool"
        }
      ],
      "stateMutability": "view",
      "type": "function"
    },
    {
      "inputs": [
        {
          "internalType": "address",
          "name": "",
          "type": "address"
        }
      ],
      "name": "presaleListClaimed",
      "outputs": [
        {
          "internalType": "uint256",
          "name": "",
          "type": "uint256"
        }
      ],
      "stateMutability": "view",
      "type": "function"
    },
    {
      "inputs": [],
      "name": "presaleListMax",
      "outputs": [
        {
          "internalType": "uint256",
          "name": "",
          "type": "uint256"
        }
      ],
      "stateMutability": "view",
      "type": "function"
    },
    {
      "inputs": [],
      "name": "price",
      "outputs": [
        {
          "internalType": "uint256",
          "name": "",
          "type": "uint256"
        }
      ],
      "stateMutability": "view",
      "type": "function"
    },
    {
      "inputs": [],
      "name": "publicSalesStartTime",
      "outputs": [
        {
          "internalType": "uint256",
          "name": "",
          "type": "uint256"
        }
      ],
      "stateMutability": "view",
      "type": "function"
    },
    {
      "inputs": [
        {
          "internalType": "address[]",
          "name": "_removeList",
          "type": "address[]"
        }
      ],
      "name": "removeFromPresaleList",
      "outputs": [],
      "stateMutability": "nonpayable",
      "type": "function"
    },
    {
      "inputs": [],
      "name": "renounceOwnership",
      "outputs": [],
      "stateMutability": "nonpayable",
      "type": "function"
    },
    {
      "inputs": [
        {
          "internalType": "address",
          "name": "from",
          "type": "address"
        },
        {
          "internalType": "address",
          "name": "to",
          "type": "address"
        },
        {
          "internalType": "uint256",
          "name": "tokenId",
          "type": "uint256"
        }
      ],
      "name": "safeTransferFrom",
      "outputs": [],
      "stateMutability": "nonpayable",
      "type": "function"
    },
    {
      "inputs": [
        {
          "internalType": "address",
          "name": "from",
          "type": "address"
        },
        {
          "internalType": "address",
          "name": "to",
          "type": "address"
        },
        {
          "internalType": "uint256",
          "name": "tokenId",
          "type": "uint256"
        },
        {
          "internalType": "bytes",
          "name": "data",
          "type": "bytes"
        }
      ],
      "name": "safeTransferFrom",
      "outputs": [],
      "stateMutability": "nonpayable",
      "type": "function"
    },
    {
      "inputs": [
        {
          "internalType": "address",
          "name": "operator",
          "type": "address"
        },
        {
          "internalType": "bool",
          "name": "approved",
          "type": "bool"
        }
      ],
      "name": "setApprovalForAll",
      "outputs": [],
      "stateMutability": "nonpayable",
      "type": "function"
    },
    {
      "inputs": [
        {
          "internalType": "string",
          "name": "_uri",
          "type": "string"
        }
      ],
      "name": "setBaseURI",
      "outputs": [],
      "stateMutability": "nonpayable",
      "type": "function"
    },
    {
      "inputs": [
        {
          "internalType": "uint256",
          "name": "_startTime",
          "type": "uint256"
        },
        {
          "internalType": "uint256",
          "name": "_endTime",
          "type": "uint256"
        }
      ],
      "name": "setPreSalesTime",
      "outputs": [],
      "stateMutability": "nonpayable",
      "type": "function"
    },
    {
      "inputs": [
        {
          "internalType": "uint256",
          "name": "_newPrice",
          "type": "uint256"
        }
      ],
      "name": "setPrice",
      "outputs": [],
      "stateMutability": "nonpayable",
      "type": "function"
    },
    {
      "inputs": [
        {
          "internalType": "uint256",
          "name": "_startTime",
          "type": "uint256"
        }
      ],
      "name": "setPublicSalesTime",
      "outputs": [],
      "stateMutability": "nonpayable",
      "type": "function"
    },
    {
      "inputs": [
        {
          "internalType": "uint256",
          "name": "_totalBeauty",
          "type": "uint256"
        }
      ],
      "name": "setTotalSales",
      "outputs": [],
      "stateMutability": "nonpayable",
      "type": "function"
    },
    {
      "inputs": [
        {
          "internalType": "uint256",
          "name": "_maxPresaleListMax",
          "type": "uint256"
        }
      ],
      "name": "setpresaleListMax",
      "outputs": [],
      "stateMutability": "nonpayable",
      "type": "function"
    },
    {
      "inputs": [
        {
          "internalType": "bytes4",
          "name": "interfaceId",
          "type": "bytes4"
        }
      ],
      "name": "supportsInterface",
      "outputs": [
        {
          "internalType": "bool",
          "name": "",
          "type": "bool"
        }
      ],
      "stateMutability": "view",
      "type": "function"
    },
    {
      "inputs": [],
      "name": "symbol",
      "outputs": [
        {
          "internalType": "string",
          "name": "",
          "type": "string"
        }
      ],
      "stateMutability": "view",
      "type": "function"
    },
    {
      "inputs": [
        {
          "internalType": "uint256",
          "name": "index",
          "type": "uint256"
        }
      ],
      "name": "tokenByIndex",
      "outputs": [
        {
          "internalType": "uint256",
          "name": "",
          "type": "uint256"
        }
      ],
      "stateMutability": "view",
      "type": "function"
    },
    {
      "inputs": [
        {
          "internalType": "address",
          "name": "owner",
          "type": "address"
        },
        {
          "internalType": "uint256",
          "name": "index",
          "type": "uint256"
        }
      ],
      "name": "tokenOfOwnerByIndex",
      "outputs": [
        {
          "internalType": "uint256",
          "name": "",
          "type": "uint256"
        }
      ],
      "stateMutability": "view",
      "type": "function"
    },
    {
      "inputs": [
        {
          "internalType": "uint256",
          "name": "tokenId",
          "type": "uint256"
        }
      ],
      "name": "tokenURI",
      "outputs": [
        {
          "internalType": "string",
          "name": "",
          "type": "string"
        }
      ],
      "stateMutability": "view",
      "type": "function"
    },
    {
      "inputs": [],
      "name": "totalSupply",
      "outputs": [
        {
          "internalType": "uint256",
          "name": "",
          "type": "uint256"
        }
      ],
      "stateMutability": "view",
      "type": "function"
    },
    {
      "inputs": [
        {
          "internalType": "address",
          "name": "from",
          "type": "address"
        },
        {
          "internalType": "address",
          "name": "to",
          "type": "address"
        },
        {
          "internalType": "uint256",
          "name": "tokenId",
          "type": "uint256"
        }
      ],
      "name": "transferFrom",
      "outputs": [],
      "stateMutability": "nonpayable",
      "type": "function"
    },
    {
      "inputs": [
        {
          "internalType": "address",
          "name": "newOwner",
          "type": "address"
        }
      ],
      "name": "transferOwnership",
      "outputs": [],
      "stateMutability": "nonpayable",
      "type": "function"
    },
    {
      "inputs": [],
      "name": "withdraw",
      "outputs": [],
      "stateMutability": "nonpayable",
      "type": "function"
    }
  ],
  "transactionHash": "0x842c19eb78975aa96cecd7be6588ba2fbcb8e538a45499ae8801b720c20e5757",
  "args": [
    "",
    "1778207377",
    "1778207377",
    "1878207377",
    "0x31D4edC29Fb83Cf70846e7B0368c912b22a3295F"
  ],
  "numDeployments": 1,
  "solcInputHash": "91f35d50f0e72bbed3fa2574b1294142",
  "bytecode": "0x6080604052662386f26fc10000600f55606460105560026011553480156200002657600080fd5b5060405162002cee38038062002cee8339810160408190526200004991620002aa565b60408051808201825260088152674d7942656175747960c01b60208083019182528351808501909452600284526126a160f11b90840152815187938793879390926200009891600091620001e7565b508051620000ae906001906020840190620001e7565b505050620000cb620000c56200010d60201b60201c565b62000111565b600b92909255600c55600d55620000e28562000163565b601480546001600160a01b0319166001600160a01b0392909216919091179055506200040c92505050565b3390565b600a80546001600160a01b038381166001600160a01b0319831681179093556040519116919082907f8be0079c531659141344cd1fd0a4f28419497f9722a3daafe3b4186f6b6457e090600090a35050565b6200016d62000186565b80516200018290600e906020840190620001e7565b5050565b600a546001600160a01b03163314620001e55760405162461bcd60e51b815260206004820181905260248201527f4f776e61626c653a2063616c6c6572206973206e6f7420746865206f776e6572604482015260640160405180910390fd5b565b828054620001f590620003b9565b90600052602060002090601f01602090048101928262000219576000855562000264565b82601f106200023457805160ff191683800117855562000264565b8280016001018555821562000264579182015b828111156200026457825182559160200191906001019062000247565b506200027292915062000276565b5090565b5b8082111562000272576000815560010162000277565b80516001600160a01b0381168114620002a557600080fd5b919050565b600080600080600060a08688031215620002c357600080fd5b85516001600160401b0380821115620002db57600080fd5b818801915088601f830112620002f057600080fd5b815181811115620003055762000305620003f6565b604051601f8201601f19908116603f01168101908382118183101715620003305762000330620003f6565b81604052828152602093508b848487010111156200034d57600080fd5b600091505b8282101562000371578482018401518183018501529083019062000352565b82821115620003835760008484830101525b80995050505080880151955050506040860151925060608601519150620003ad608087016200028d565b90509295509295909350565b600181811c90821680620003ce57607f821691505b60208210811415620003f057634e487b7160e01b600052602260045260246000fd5b50919050565b634e487b7160e01b600052604160045260246000fd5b6128d2806200041c6000396000f3fe60806040526004361061025c5760003560e01c8063715018a611610144578063ae4384f1116100b6578063e6ab14341161007a578063e6ab1434146106ee578063e6c3819c14610701578063e985e9c514610717578063ed39039b14610760578063f2fde38b14610780578063f52edd52146107a057600080fd5b8063ae4384f114610664578063b179e06014610679578063b7329d2b14610699578063b88d4fde146106ae578063c87b56dd146106ce57600080fd5b806391b7f5ed1161010857806391b7f5ed146105d057806395d89b41146105f0578063a035b1fe14610605578063a0712d681461061b578063a22cb4651461062e578063a78a673f1461064e57600080fd5b8063715018a61461053d5780637204a3c91461055257806375d44078146105725780638b24008b146105925780638da5cb5b146105b257600080fd5b80633c64203e116101dd5780634fa153b3116101a15780634fa153b31461046f57806355f804b31461048457806360869d9b146104a457806360954ac1146104c45780636352211e146104fd57806370a082311461051d57600080fd5b80633c64203e146103d75780633ccfd60b146103ed57806342842e0e146104025780634e12bc77146104225780634f6ccce71461044f57600080fd5b806318160ddd1161022457806318160ddd1461034257806323b872dd146103615780632f745c5914610381578063315ce7a6146103a1578063397d0c0c146103c157600080fd5b806301ffc9a71461026157806306fdde0314610296578063081812fc146102b8578063095ea7b3146102f057806312fb92e014610312575b600080fd5b34801561026d57600080fd5b5061028161027c3660046124bf565b6107b6565b60405190151581526020015b60405180910390f35b3480156102a257600080fd5b506102ab6107e1565b60405161028d9190612615565b3480156102c457600080fd5b506102d86102d3366004612542565b610873565b6040516001600160a01b03909116815260200161028d565b3480156102fc57600080fd5b5061031061030b366004612420565b61089a565b005b34801561031e57600080fd5b5061028161032d3660046122de565b60126020526000908152604090205460ff1681565b34801561034e57600080fd5b506008545b60405190815260200161028d565b34801561036d57600080fd5b5061031061037c36600461232c565b6109b5565b34801561038d57600080fd5b5061035361039c366004612420565b6109e6565b3480156103ad57600080fd5b506103106103bc366004612542565b610a7c565b3480156103cd57600080fd5b50610353600c5481565b3480156103e357600080fd5b5061035360105481565b3480156103f957600080fd5b50610310610a89565b34801561040e57600080fd5b5061031061041d36600461232c565b610ac6565b34801561042e57600080fd5b5061035361043d3660046122de565b60136020526000908152604090205481565b34801561045b57600080fd5b5061035361046a366004612542565b610ae1565b34801561047b57600080fd5b506102ab610b74565b34801561049057600080fd5b5061031061049f3660046124f9565b610c02565b3480156104b057600080fd5b506103106104bf366004612542565b610c21565b3480156104d057600080fd5b506102816104df3660046122de565b6001600160a01b031660009081526012602052604090205460ff1690565b34801561050957600080fd5b506102d8610518366004612542565b610c2e565b34801561052957600080fd5b506103536105383660046122de565b610c8e565b34801561054957600080fd5b50610310610d14565b34801561055e57600080fd5b5061031061056d36600461244a565b610d28565b34801561057e57600080fd5b506014546102d8906001600160a01b031681565b34801561059e57600080fd5b506103106105ad366004612542565b610e4a565b3480156105be57600080fd5b50600a546001600160a01b03166102d8565b3480156105dc57600080fd5b506103106105eb366004612542565b610e57565b3480156105fc57600080fd5b506102ab610e64565b34801561061157600080fd5b50610353600f5481565b610310610629366004612542565b610e73565b34801561063a57600080fd5b506103106106493660046123e4565b6110c4565b34801561065a57600080fd5b50610353600d5481565b34801561067057600080fd5b506102816110cf565b34801561068557600080fd5b5061031061069436600461244a565b6110e9565b3480156106a557600080fd5b50610281611163565b3480156106ba57600080fd5b506103106106c9366004612368565b611197565b3480156106da57600080fd5b506102ab6106e9366004612542565b6111cf565b6103106106fc366004612542565b611236565b34801561070d57600080fd5b50610353600b5481565b34801561072357600080fd5b506102816107323660046122f9565b6001600160a01b03918216600090815260056020908152604080832093909416825291909152205460ff1690565b34801561076c57600080fd5b5061031061077b36600461255b565b6114be565b34801561078c57600080fd5b5061031061079b3660046122de565b611547565b3480156107ac57600080fd5b5061035360115481565b60006001600160e01b0319821663780e9d6360e01b14806107db57506107db826115bd565b92915050565b6060600080546107f0906127d8565b80601f016020809104026020016040519081016040528092919081815260200182805461081c906127d8565b80156108695780601f1061083e57610100808354040283529160200191610869565b820191906000526020600020905b81548152906001019060200180831161084c57829003601f168201915b5050505050905090565b600061087e8261160d565b506000908152600460205260409020546001600160a01b031690565b60006108a582610c2e565b9050806001600160a01b0316836001600160a01b031614156109185760405162461bcd60e51b815260206004820152602160248201527f4552433732313a20617070726f76616c20746f2063757272656e74206f776e656044820152603960f91b60648201526084015b60405180910390fd5b336001600160a01b038216148061093457506109348133610732565b6109a65760405162461bcd60e51b815260206004820152603d60248201527f4552433732313a20617070726f76652063616c6c6572206973206e6f7420746f60448201527f6b656e206f776e6572206f7220617070726f76656420666f7220616c6c000000606482015260840161090f565b6109b0838361166c565b505050565b6109bf33826116da565b6109db5760405162461bcd60e51b815260040161090f90612628565b6109b0838383611759565b60006109f183610c8e565b8210610a535760405162461bcd60e51b815260206004820152602b60248201527f455243373231456e756d657261626c653a206f776e657220696e646578206f7560448201526a74206f6620626f756e647360a81b606482015260840161090f565b506001600160a01b03919091166000908152600660209081526040808320938352929052205490565b610a846118ca565b601055565b610a916118ca565b60145460405147916001600160a01b03169082156108fc029083906000818181858888f19350505050610ac357600080fd5b50565b6109b083838360405180602001604052806000815250611197565b6000610aec60085490565b8210610b4f5760405162461bcd60e51b815260206004820152602c60248201527f455243373231456e756d657261626c653a20676c6f62616c20696e646578206f60448201526b7574206f6620626f756e647360a01b606482015260840161090f565b60088281548110610b6257610b6261285a565b90600052602060002001549050919050565b600e8054610b81906127d8565b80601f0160208091040260200160405190810160405280929190818152602001828054610bad906127d8565b8015610bfa5780601f10610bcf57610100808354040283529160200191610bfa565b820191906000526020600020905b815481529060010190602001808311610bdd57829003601f168201915b505050505081565b610c0a6118ca565b8051610c1d90600e9060208401906121b3565b5050565b610c296118ca565b600b55565b6000818152600260205260408120546001600160a01b0316806107db5760405162461bcd60e51b8152602060048201526018602482015277115490cdcc8c4e881a5b9d985b1a59081d1bdad95b88125160421b604482015260640161090f565b60006001600160a01b038216610cf85760405162461bcd60e51b815260206004820152602960248201527f4552433732313a2061646472657373207a65726f206973206e6f7420612076616044820152683634b21037bbb732b960b91b606482015260840161090f565b506001600160a01b031660009081526003602052604090205490565b610d1c6118ca565b610d266000611924565b565b610d306118ca565b60005b818110156109b057600160126000858585818110610d5357610d5361285a565b9050602002016020810190610d6891906122de565b6001600160a01b0316815260208101919091526040016000908120805460ff191692151592909217909155601381858585818110610da857610da861285a565b9050602002016020810190610dbd91906122de565b6001600160a01b03166001600160a01b031681526020019081526020016000205411610dea576000610e37565b60136000848484818110610e0057610e0061285a565b9050602002016020810190610e1591906122de565b6001600160a01b03166001600160a01b03168152602001908152602001600020545b5080610e4281612813565b915050610d33565b610e526118ca565b601155565b610e5f6118ca565b600f55565b6060600180546107f0906127d8565b610e7b6110cf565b610ec75760405162461bcd60e51b815260206004820152601860248201527f5075626c69632073616c6573206e6f7420737461727465640000000000000000604482015260640161090f565b6000610ed260085490565b601054909150610ee2838361275e565b1115610f305760405162461bcd60e51b815260206004820152601d60248201527f45786365656473206d6178696d756d2062656175747920737570706c79000000604482015260640161090f565b60008211610f805760405162461bcd60e51b815260206004820152601960248201527f596f752063616e6e6f74206d696e742030204265617574792e00000000000000604482015260640161090f565b6032821115610fee5760405162461bcd60e51b815260206004820152603460248201527f596f7520617265206e6f7420616c6c6f77656420746f2062757920746869732060448201527336b0b73c903132b0baba3c9030ba1037b731b29760611b606482015260840161090f565b81600f54610ffc9190612776565b34101561101b5760405162461bcd60e51b815260040161090f9061270c565b3233146110625760405162461bcd60e51b815260206004820152601560248201527410dbdb9d1c9858dd1cc81b9bdd08185b1b1bddd959605a1b604482015260640161090f565b60005b82811015611092576110803361107b838561275e565b611976565b8061108a81612813565b915050611065565b50604051339083907ff3cea5493d790af0133817606f7350a91d7f154ea52eaa79d179d4d231e5010290600090a35050565b610c1d338383611990565b600080600b541180156110e45750600b544210155b905090565b6110f16118ca565b60005b818110156109b0576000601260008585858181106111145761111461285a565b905060200201602081019061112991906122de565b6001600160a01b031681526020810191909152604001600020805460ff19169115159190911790558061115b81612813565b9150506110f4565b600080600c5411801561117857506000600d54115b80156111865750600c544210155b80156110e4575050600d5442111590565b6111a133836116da565b6111bd5760405162461bcd60e51b815260040161090f90612628565b6111c984848484611a5f565b50505050565b60606111da8261160d565b60006111e4611a92565b90506000815111611204576040518060200160405280600081525061122f565b8061120e84611aa1565b60405160200161121f9291906125a9565b6040516020818303038152906040525b9392505050565b61123e611163565b6112815760405162461bcd60e51b8152602060048201526014602482015273141c995cd85b195cc81b9bdd081cdd185c9d195960621b604482015260640161090f565b600061128c60085490565b3360009081526012602052604090205490915060ff166112ee5760405162461bcd60e51b815260206004820152601c60248201527f596f7520617265206e6f74206f6e2074686520416c6c6f776c69737400000000604482015260640161090f565b6011543360009081526013602052604090205461130c90849061275e565b111561135a5760405162461bcd60e51b815260206004820152601c60248201527f50757263686173652065786365656473206d617820616c6c6f77656400000000604482015260640161090f565b81600f546113689190612776565b3410156113875760405162461bcd60e51b815260040161090f9061270c565b601054611394838361275e565b11156113e25760405162461bcd60e51b815260206004820152601d60248201527f45786365656473206d6178696d756d2062656175747920737570706c79000000604482015260640161090f565b32331461143b5760405162461bcd60e51b815260206004820152602160248201527f436f6e74726163747320617265206e6f7420616c6c6f77656420746f206d696e6044820152601d60fa1b606482015260840161090f565b60005b8281101561148c5733600090815260136020526040812080546001929061146690849061275e565b9091555061147a90503361107b838561275e565b8061148481612813565b91505061143e565b50604051339083907f3d30276bb50ba21e5d31bf4e749c28a8c45404b27b231249c3f6860f84c3372990600090a35050565b6114c66118ca565b8181101561153c5760405162461bcd60e51b815260206004820152603c60248201527f50726553616c657341637469766174696f6e3a20456e642074696d652073686f60448201527f756c64206265206c61746572207468616e2073746172742074696d6500000000606482015260840161090f565b600c91909155600d55565b61154f6118ca565b6001600160a01b0381166115b45760405162461bcd60e51b815260206004820152602660248201527f4f776e61626c653a206e6577206f776e657220697320746865207a65726f206160448201526564647265737360d01b606482015260840161090f565b610ac381611924565b60006001600160e01b031982166380ac58cd60e01b14806115ee57506001600160e01b03198216635b5e139f60e01b145b806107db57506301ffc9a760e01b6001600160e01b03198316146107db565b6000818152600260205260409020546001600160a01b0316610ac35760405162461bcd60e51b8152602060048201526018602482015277115490cdcc8c4e881a5b9d985b1a59081d1bdad95b88125160421b604482015260640161090f565b600081815260046020526040902080546001600160a01b0319166001600160a01b03841690811790915581906116a182610c2e565b6001600160a01b03167f8c5be1e5ebec7d5bd14f71427d1e84f3dd0314c0f7b2291e5b200ac8c7c3b92560405160405180910390a45050565b6000806116e683610c2e565b9050806001600160a01b0316846001600160a01b0316148061172d57506001600160a01b0380821660009081526005602090815260408083209388168352929052205460ff165b806117515750836001600160a01b031661174684610873565b6001600160a01b0316145b949350505050565b826001600160a01b031661176c82610c2e565b6001600160a01b0316146117925760405162461bcd60e51b815260040161090f906126c7565b6001600160a01b0382166117f45760405162461bcd60e51b8152602060048201526024808201527f4552433732313a207472616e7366657220746f20746865207a65726f206164646044820152637265737360e01b606482015260840161090f565b6118018383836001611b3e565b826001600160a01b031661181482610c2e565b6001600160a01b03161461183a5760405162461bcd60e51b815260040161090f906126c7565b600081815260046020908152604080832080546001600160a01b03199081169091556001600160a01b0387811680865260038552838620805460001901905590871680865283862080546001019055868652600290945282852080549092168417909155905184937fddf252ad1be2c89b69c2b068fc378daa952ba7f163c4a11628f55a4df523b3ef91a4505050565b600a546001600160a01b03163314610d265760405162461bcd60e51b815260206004820181905260248201527f4f776e61626c653a2063616c6c6572206973206e6f7420746865206f776e6572604482015260640161090f565b600a80546001600160a01b038381166001600160a01b0319831681179093556040519116919082907f8be0079c531659141344cd1fd0a4f28419497f9722a3daafe3b4186f6b6457e090600090a35050565b610c1d828260405180602001604052806000815250611c72565b816001600160a01b0316836001600160a01b031614156119f25760405162461bcd60e51b815260206004820152601960248201527f4552433732313a20617070726f766520746f2063616c6c657200000000000000604482015260640161090f565b6001600160a01b03838116600081815260056020908152604080832094871680845294825291829020805460ff191686151590811790915591519182527f17307eab39ab6107e8899845ad3d59bd9653f200f220920489ca2b5937696c31910160405180910390a3505050565b611a6a848484611759565b611a7684848484611ca5565b6111c95760405162461bcd60e51b815260040161090f90612675565b6060600e80546107f0906127d8565b60606000611aae83611db2565b600101905060008167ffffffffffffffff811115611ace57611ace612870565b6040519080825280601f01601f191660200182016040528015611af8576020820181803683370190505b5090508181016020015b600019016f181899199a1a9b1b9c1cb0b131b232b360811b600a86061a8153600a8504945084611b3157611b36565b611b02565b509392505050565b6001811115611bad5760405162461bcd60e51b815260206004820152603560248201527f455243373231456e756d657261626c653a20636f6e7365637574697665207472604482015274185b9cd9995c9cc81b9bdd081cdd5c1c1bdc9d1959605a1b606482015260840161090f565b816001600160a01b038516611c0957611c0481600880546000838152600960205260408120829055600182018355919091527ff3f7a9fe364faab93b216da50a3214154f22a0a2b415b23a84c8169e8b636ee30155565b611c2c565b836001600160a01b0316856001600160a01b031614611c2c57611c2c8582611e8a565b6001600160a01b038416611c4857611c4381611f27565b611c6b565b846001600160a01b0316846001600160a01b031614611c6b57611c6b8482611fd6565b5050505050565b611c7c838361201a565b611c896000848484611ca5565b6109b05760405162461bcd60e51b815260040161090f90612675565b60006001600160a01b0384163b15611da757604051630a85bd0160e11b81526001600160a01b0385169063150b7a0290611ce99033908990889088906004016125d8565b602060405180830381600087803b158015611d0357600080fd5b505af1925050508015611d33575060408051601f3d908101601f19168201909252611d30918101906124dc565b60015b611d8d573d808015611d61576040519150601f19603f3d011682016040523d82523d6000602084013e611d66565b606091505b508051611d855760405162461bcd60e51b815260040161090f90612675565b805181602001fd5b6001600160e01b031916630a85bd0160e11b149050611751565b506001949350505050565b60008072184f03e93ff9f4daa797ed6e38ed64bf6a1f0160401b8310611df15772184f03e93ff9f4daa797ed6e38ed64bf6a1f0160401b830492506040015b6d04ee2d6d415b85acef81000000008310611e1d576d04ee2d6d415b85acef8100000000830492506020015b662386f26fc100008310611e3b57662386f26fc10000830492506010015b6305f5e1008310611e53576305f5e100830492506008015b6127108310611e6757612710830492506004015b60648310611e79576064830492506002015b600a83106107db5760010192915050565b60006001611e9784610c8e565b611ea19190612795565b600083815260076020526040902054909150808214611ef4576001600160a01b03841660009081526006602090815260408083208584528252808320548484528184208190558352600790915290208190555b5060009182526007602090815260408084208490556001600160a01b039094168352600681528383209183525290812055565b600854600090611f3990600190612795565b60008381526009602052604081205460088054939450909284908110611f6157611f6161285a565b906000526020600020015490508060088381548110611f8257611f8261285a565b6000918252602080832090910192909255828152600990915260408082208490558582528120556008805480611fba57611fba612844565b6001900381819060005260206000200160009055905550505050565b6000611fe183610c8e565b6001600160a01b039093166000908152600660209081526040808320868452825280832085905593825260079052919091209190915550565b6001600160a01b0382166120705760405162461bcd60e51b815260206004820181905260248201527f4552433732313a206d696e7420746f20746865207a65726f2061646472657373604482015260640161090f565b6000818152600260205260409020546001600160a01b0316156120d55760405162461bcd60e51b815260206004820152601c60248201527f4552433732313a20746f6b656e20616c7265616479206d696e74656400000000604482015260640161090f565b6120e3600083836001611b3e565b6000818152600260205260409020546001600160a01b0316156121485760405162461bcd60e51b815260206004820152601c60248201527f4552433732313a20746f6b656e20616c7265616479206d696e74656400000000604482015260640161090f565b6001600160a01b038216600081815260036020908152604080832080546001019055848352600290915280822080546001600160a01b0319168417905551839291907fddf252ad1be2c89b69c2b068fc378daa952ba7f163c4a11628f55a4df523b3ef908290a45050565b8280546121bf906127d8565b90600052602060002090601f0160209004810192826121e15760008555612227565b82601f106121fa57805160ff1916838001178555612227565b82800160010185558215612227579182015b8281111561222757825182559160200191906001019061220c565b50612233929150612237565b5090565b5b808211156122335760008155600101612238565b600067ffffffffffffffff8084111561226757612267612870565b604051601f8501601f19908116603f0116810190828211818310171561228f5761228f612870565b816040528093508581528686860111156122a857600080fd5b858560208301376000602087830101525050509392505050565b80356001600160a01b03811681146122d957600080fd5b919050565b6000602082840312156122f057600080fd5b61122f826122c2565b6000806040838503121561230c57600080fd5b612315836122c2565b9150612323602084016122c2565b90509250929050565b60008060006060848603121561234157600080fd5b61234a846122c2565b9250612358602085016122c2565b9150604084013590509250925092565b6000806000806080858703121561237e57600080fd5b612387856122c2565b9350612395602086016122c2565b925060408501359150606085013567ffffffffffffffff8111156123b857600080fd5b8501601f810187136123c957600080fd5b6123d88782356020840161224c565b91505092959194509250565b600080604083850312156123f757600080fd5b612400836122c2565b91506020830135801515811461241557600080fd5b809150509250929050565b6000806040838503121561243357600080fd5b61243c836122c2565b946020939093013593505050565b6000806020838503121561245d57600080fd5b823567ffffffffffffffff8082111561247557600080fd5b818501915085601f83011261248957600080fd5b81358181111561249857600080fd5b8660208260051b85010111156124ad57600080fd5b60209290920196919550909350505050565b6000602082840312156124d157600080fd5b813561122f81612886565b6000602082840312156124ee57600080fd5b815161122f81612886565b60006020828403121561250b57600080fd5b813567ffffffffffffffff81111561252257600080fd5b8201601f8101841361253357600080fd5b6117518482356020840161224c565b60006020828403121561255457600080fd5b5035919050565b6000806040838503121561256e57600080fd5b50508035926020909101359150565b600081518084526125958160208601602086016127ac565b601f01601f19169290920160200192915050565b600083516125bb8184602088016127ac565b8351908301906125cf8183602088016127ac565b01949350505050565b6001600160a01b038581168252841660208201526040810183905260806060820181905260009061260b9083018461257d565b9695505050505050565b60208152600061122f602083018461257d565b6020808252602d908201527f4552433732313a2063616c6c6572206973206e6f7420746f6b656e206f776e6560408201526c1c881bdc88185c1c1c9bdd9959609a1b606082015260800190565b60208082526032908201527f4552433732313a207472616e7366657220746f206e6f6e20455243373231526560408201527131b2b4bb32b91034b6b83632b6b2b73a32b960711b606082015260800190565b60208082526025908201527f4552433732313a207472616e736665722066726f6d20696e636f72726563742060408201526437bbb732b960d91b606082015260800190565b60208082526032908201527f596f7520646f6e27742073656e6420656e6f7567682065746820746f2070757260408201527163686173652074686520626561757469657360701b606082015260800190565b600082198211156127715761277161282e565b500190565b60008160001904831182151516156127905761279061282e565b500290565b6000828210156127a7576127a761282e565b500390565b60005b838110156127c75781810151838201526020016127af565b838111156111c95750506000910152565b600181811c908216806127ec57607f821691505b6020821081141561280d57634e487b7160e01b600052602260045260246000fd5b50919050565b60006000198214156128275761282761282e565b5060010190565b634e487b7160e01b600052601160045260246000fd5b634e487b7160e01b600052603160045260246000fd5b634e487b7160e01b600052603260045260246000fd5b634e487b7160e01b600052604160045260246000fd5b6001600160e01b031981168114610ac357600080fdfea2646970667358221220d3154a2ca300b0420f68a70cd85166227dc623fbe0d9736650846c36caf13e2b64736f6c63430008070033",
  "devdoc": {
    "kind": "dev",
    "methods": {
      "approve(address,uint256)": {
        "details": "See {IERC721-approve}."
      },
      "balanceOf(address)": {
        "details": "See {IERC721-balanceOf}."
      },
      "getApproved(uint256)": {
        "details": "See {IERC721-getApproved}."
      },
      "isApprovedForAll(address,address)": {
        "details": "See {IERC721-isApprovedForAll}."
      },
      "name()": {
        "details": "See {IERC721Metadata-name}."
      },
      "owner()": {
        "details": "Returns the address of the current owner."
      },
      "ownerOf(uint256)": {
        "details": "See {IERC721-ownerOf}."
      },
      "renounceOwnership()": {
        "details": "Leaves the contract without owner. It will not be possible to call `onlyOwner` functions anymore. Can only be called by the current owner. NOTE: Renouncing ownership will leave the contract without an owner, thereby removing any functionality that is only available to the owner."
      },
      "safeTransferFrom(address,address,uint256)": {
        "details": "See {IERC721-safeTransferFrom}."
      },
      "safeTransferFrom(address,address,uint256,bytes)": {
        "details": "See {IERC721-safeTransferFrom}."
      },
      "setApprovalForAll(address,bool)": {
        "details": "See {IERC721-setApprovalForAll}."
      },
      "supportsInterface(bytes4)": {
        "details": "See {IERC165-supportsInterface}."
      },
      "symbol()": {
        "details": "See {IERC721Metadata-symbol}."
      },
      "tokenByIndex(uint256)": {
        "details": "See {IERC721Enumerable-tokenByIndex}."
      },
      "tokenOfOwnerByIndex(address,uint256)": {
        "details": "See {IERC721Enumerable-tokenOfOwnerByIndex}."
      },
      "tokenURI(uint256)": {
        "details": "See {IERC721Metadata-tokenURI}."
      },
      "totalSupply()": {
        "details": "See {IERC721Enumerable-totalSupply}."
      },
      "transferFrom(address,address,uint256)": {
        "details": "See {IERC721-transferFrom}."
      },
      "transferOwnership(address)": {
        "details": "Transfers ownership of the contract to a new account (`newOwner`). Can only be called by the current owner."
      }
    },
    "version": 1
  },
  "userdoc": {
    "events": {
      "Presale(uint256,address)": {
        "notice": "Events"
      }
    },
    "kind": "user",
    "methods": {
      "addToPresaleList(address[])": {
        "notice": "Getter/Setter"
      },
      "isPublicSalesActivated()": {
        "notice": "Functions"
      },
      "nftURI()": {
        "notice": "Variables"
      },
      "presale(uint256)": {
        "notice": "Functions"
      },
      "publicSalesStartTime()": {
        "notice": "Variables"
      }
    },
    "version": 1
  },
  "storageLayout": {
    "storage": [
      {
        "astId": 138,
        "contract": "contracts/MyBeautyNFT.sol:MyBeautyNFT",
        "label": "_name",
        "offset": 0,
        "slot": "0",
        "type": "t_string_storage"
      },
      {
        "astId": 140,
        "contract": "contracts/MyBeautyNFT.sol:MyBeautyNFT",
        "label": "_symbol",
        "offset": 0,
        "slot": "1",
        "type": "t_string_storage"
      },
      {
        "astId": 144,
        "contract": "contracts/MyBeautyNFT.sol:MyBeautyNFT",
        "label": "_owners",
        "offset": 0,
        "slot": "2",
        "type": "t_mapping(t_uint256,t_address)"
      },
      {
        "astId": 148,
        "contract": "contracts/MyBeautyNFT.sol:MyBeautyNFT",
        "label": "_balances",
        "offset": 0,
        "slot": "3",
        "type": "t_mapping(t_address,t_uint256)"
      },
      {
        "astId": 152,
        "contract": "contracts/MyBeautyNFT.sol:MyBeautyNFT",
        "label": "_tokenApprovals",
        "offset": 0,
        "slot": "4",
        "type": "t_mapping(t_uint256,t_address)"
      },
      {
        "astId": 158,
        "contract": "contracts/MyBeautyNFT.sol:MyBeautyNFT",
        "label": "_operatorApprovals",
        "offset": 0,
        "slot": "5",
        "type": "t_mapping(t_address,t_mapping(t_address,t_bool))"
      },
      {
        "astId": 1188,
        "contract": "contracts/MyBeautyNFT.sol:MyBeautyNFT",
        "label": "_ownedTokens",
        "offset": 0,
        "slot": "6",
        "type": "t_mapping(t_address,t_mapping(t_uint256,t_uint256))"
      },
      {
        "astId": 1192,
        "contract": "contracts/MyBeautyNFT.sol:MyBeautyNFT",
        "label": "_ownedTokensIndex",
        "offset": 0,
        "slot": "7",
        "type": "t_mapping(t_uint256,t_uint256)"
      },
      {
        "astId": 1195,
        "contract": "contracts/MyBeautyNFT.sol:MyBeautyNFT",
        "label": "_allTokens",
        "offset": 0,
        "slot": "8",
        "type": "t_array(t_uint256)dyn_storage"
      },
      {
        "astId": 1199,
        "contract": "contracts/MyBeautyNFT.sol:MyBeautyNFT",
        "label": "_allTokensIndex",
        "offset": 0,
        "slot": "9",
        "type": "t_mapping(t_uint256,t_uint256)"
      },
      {
        "astId": 7,
        "contract": "contracts/MyBeautyNFT.sol:MyBeautyNFT",
        "label": "_owner",
        "offset": 0,
        "slot": "10",
        "type": "t_address"
      },
      {
        "astId": 3444,
        "contract": "contracts/MyBeautyNFT.sol:MyBeautyNFT",
        "label": "publicSalesStartTime",
        "offset": 0,
        "slot": "11",
        "type": "t_uint256"
      },
      {
        "astId": 3446,
        "contract": "contracts/MyBeautyNFT.sol:MyBeautyNFT",
        "label": "preSalesStartTime",
        "offset": 0,
        "slot": "12",
        "type": "t_uint256"
      },
      {
        "astId": 3448,
        "contract": "contracts/MyBeautyNFT.sol:MyBeautyNFT",
        "label": "preSalesEndTime",
        "offset": 0,
        "slot": "13",
        "type": "t_uint256"
      },
      {
        "astId": 3027,
        "contract": "contracts/MyBeautyNFT.sol:MyBeautyNFT",
        "label": "nftURI",
        "offset": 0,
        "slot": "14",
        "type": "t_string_storage"
      },
      {
        "astId": 3030,
        "contract": "contracts/MyBeautyNFT.sol:MyBeautyNFT",
        "label": "price",
        "offset": 0,
        "slot": "15",
        "type": "t_uint256"
      },
      {
        "astId": 3033,
        "contract": "contracts/MyBeautyNFT.sol:MyBeautyNFT",
        "label": "max_sales_beauty",
        "offset": 0,
        "slot": "16",
        "type": "t_uint256"
      },
      {
        "astId": 3036,
        "contract": "contracts/MyBeautyNFT.sol:MyBeautyNFT",
        "label": "presaleListMax",
        "offset": 0,
        "slot": "17",
        "type": "t_uint256"
      },
      {
        "astId": 3040,
        "contract": "contracts/MyBeautyNFT.sol:MyBeautyNFT",
        "label": "presaleList",
        "offset": 0,
        "slot": "18",
        "type": "t_mapping(t_address,t_bool)"
      },
      {
        "astId": 3044,
        "contract": "contracts/MyBeautyNFT.sol:MyBeautyNFT",
        "label": "presaleListClaimed",
        "offset": 0,
        "slot": "19",
        "type": "t_mapping(t_address,t_uint256)"
      },
      {
        "astId": 3046,
        "contract": "contracts/MyBeautyNFT.sol:MyBeautyNFT",
        "label": "claimFundAddress",
        "offset": 0,
        "slot": "20",
        "type": "t_address"
      }
    ],
    "types": {
      "t_address": {
        "encoding": "inplace",
        "label": "address",
        "numberOfBytes": "20"
      },
      "t_array(t_uint256)dyn_storage": {
        "base": "t_uint256",
        "encoding": "dynamic_array",
        "label": "uint256[]",
        "numberOfBytes": "32"
      },
      "t_bool": {
        "encoding": "inplace",
        "label": "bool",
        "numberOfBytes": "1"
      },
      "t_mapping(t_address,t_bool)": {
        "encoding": "mapping",
        "key": "t_address",
        "label": "mapping(address => bool)",
        "numberOfBytes": "32",
        "value": "t_bool"
      },
      "t_mapping(t_address,t_mapping(t_address,t_bool))": {
        "encoding": "mapping",
        "key": "t_address",
        "label": "mapping(address => mapping(address => bool))",
        "numberOfBytes": "32",
        "value": "t_mapping(t_address,t_bool)"
      },
      "t_mapping(t_address,t_mapping(t_uint256,t_uint256))": {
        "encoding": "mapping",
        "key": "t_address",
        "label": "mapping(address => mapping(uint256 => uint256))",
        "numberOfBytes": "32",
        "value": "t_mapping(t_uint256,t_uint256)"
      },
      "t_mapping(t_address,t_uint256)": {
        "encoding": "mapping",
        "key": "t_address",
        "label": "mapping(address => uint256)",
        "numberOfBytes": "32",
        "value": "t_uint256"
      },
      "t_mapping(t_uint256,t_address)": {
        "encoding": "mapping",
        "key": "t_uint256",
        "label": "mapping(uint256 => address)",
        "numberOfBytes": "32",
        "value": "t_address"
      },
      "t_mapping(t_uint256,t_uint256)": {
        "encoding": "mapping",
        "key": "t_uint256",
        "label": "mapping(uint256 => uint256)",
        "numberOfBytes": "32",
        "value": "t_uint256"
      },
      "t_string_storage": {
        "encoding": "bytes",
        "label": "string",
        "numberOfBytes": "32"
      },
      "t_uint256": {
        "encoding": "inplace",
        "label": "uint256",
        "numberOfBytes": "32"
      }
    }
  }
}